{
  "contractName": "ERC721Mock",
  "abi": [
    {
      "inputs": [],
      "stateMutability": "nonpayable",
      "type": "constructor"
    },
    {
      "anonymous": false,
      "inputs": [
        {
          "indexed": true,
          "internalType": "address",
          "name": "owner",
          "type": "address"
        },
        {
          "indexed": true,
          "internalType": "address",
          "name": "approved",
          "type": "address"
        },
        {
          "indexed": true,
          "internalType": "uint256",
          "name": "tokenId",
          "type": "uint256"
        }
      ],
      "name": "Approval",
      "type": "event"
    },
    {
      "anonymous": false,
      "inputs": [
        {
          "indexed": true,
          "internalType": "address",
          "name": "owner",
          "type": "address"
        },
        {
          "indexed": true,
          "internalType": "address",
          "name": "operator",
          "type": "address"
        },
        {
          "indexed": false,
          "internalType": "bool",
          "name": "approved",
          "type": "bool"
        }
      ],
      "name": "ApprovalForAll",
      "type": "event"
    },
    {
      "anonymous": false,
      "inputs": [
        {
          "indexed": true,
          "internalType": "address",
          "name": "from",
          "type": "address"
        },
        {
          "indexed": true,
          "internalType": "address",
          "name": "to",
          "type": "address"
        },
        {
          "indexed": true,
          "internalType": "uint256",
          "name": "tokenId",
          "type": "uint256"
        }
      ],
      "name": "Transfer",
      "type": "event"
    },
    {
      "inputs": [
        {
          "internalType": "address",
          "name": "to",
          "type": "address"
        },
        {
          "internalType": "uint256",
          "name": "tokenId",
          "type": "uint256"
        }
      ],
      "name": "approve",
      "outputs": [],
      "stateMutability": "nonpayable",
      "type": "function"
    },
    {
      "inputs": [
        {
          "internalType": "address",
          "name": "owner",
          "type": "address"
        }
      ],
      "name": "balanceOf",
      "outputs": [
        {
          "internalType": "uint256",
          "name": "",
          "type": "uint256"
        }
      ],
      "stateMutability": "view",
      "type": "function",
      "constant": true
    },
    {
      "inputs": [
        {
          "internalType": "uint256",
          "name": "tokenId",
          "type": "uint256"
        }
      ],
      "name": "getApproved",
      "outputs": [
        {
          "internalType": "address",
          "name": "",
          "type": "address"
        }
      ],
      "stateMutability": "view",
      "type": "function",
      "constant": true
    },
    {
      "inputs": [
        {
          "internalType": "address",
          "name": "owner",
          "type": "address"
        },
        {
          "internalType": "address",
          "name": "operator",
          "type": "address"
        }
      ],
      "name": "isApprovedForAll",
      "outputs": [
        {
          "internalType": "bool",
          "name": "",
          "type": "bool"
        }
      ],
      "stateMutability": "view",
      "type": "function",
      "constant": true
    },
    {
      "inputs": [],
      "name": "name",
      "outputs": [
        {
          "internalType": "string",
          "name": "",
          "type": "string"
        }
      ],
      "stateMutability": "view",
      "type": "function",
      "constant": true
    },
    {
      "inputs": [
        {
          "internalType": "uint256",
          "name": "tokenId",
          "type": "uint256"
        }
      ],
      "name": "ownerOf",
      "outputs": [
        {
          "internalType": "address",
          "name": "",
          "type": "address"
        }
      ],
      "stateMutability": "view",
      "type": "function",
      "constant": true
    },
    {
      "inputs": [
        {
          "internalType": "address",
          "name": "from",
          "type": "address"
        },
        {
          "internalType": "address",
          "name": "to",
          "type": "address"
        },
        {
          "internalType": "uint256",
          "name": "tokenId",
          "type": "uint256"
        }
      ],
      "name": "safeTransferFrom",
      "outputs": [],
      "stateMutability": "nonpayable",
      "type": "function"
    },
    {
      "inputs": [
        {
          "internalType": "address",
          "name": "from",
          "type": "address"
        },
        {
          "internalType": "address",
          "name": "to",
          "type": "address"
        },
        {
          "internalType": "uint256",
          "name": "tokenId",
          "type": "uint256"
        },
        {
          "internalType": "bytes",
          "name": "_data",
          "type": "bytes"
        }
      ],
      "name": "safeTransferFrom",
      "outputs": [],
      "stateMutability": "nonpayable",
      "type": "function"
    },
    {
      "inputs": [
        {
          "internalType": "address",
          "name": "operator",
          "type": "address"
        },
        {
          "internalType": "bool",
          "name": "approved",
          "type": "bool"
        }
      ],
      "name": "setApprovalForAll",
      "outputs": [],
      "stateMutability": "nonpayable",
      "type": "function"
    },
    {
      "inputs": [
        {
          "internalType": "bytes4",
          "name": "interfaceId",
          "type": "bytes4"
        }
      ],
      "name": "supportsInterface",
      "outputs": [
        {
          "internalType": "bool",
          "name": "",
          "type": "bool"
        }
      ],
      "stateMutability": "view",
      "type": "function",
      "constant": true
    },
    {
      "inputs": [],
      "name": "symbol",
      "outputs": [
        {
          "internalType": "string",
          "name": "",
          "type": "string"
        }
      ],
      "stateMutability": "view",
      "type": "function",
      "constant": true
    },
    {
      "inputs": [
        {
          "internalType": "uint256",
          "name": "tokenId",
          "type": "uint256"
        }
      ],
      "name": "tokenURI",
      "outputs": [
        {
          "internalType": "string",
          "name": "",
          "type": "string"
        }
      ],
      "stateMutability": "view",
      "type": "function",
      "constant": true
    },
    {
      "inputs": [
        {
          "internalType": "address",
          "name": "from",
          "type": "address"
        },
        {
          "internalType": "address",
          "name": "to",
          "type": "address"
        },
        {
          "internalType": "uint256",
          "name": "tokenId",
          "type": "uint256"
        }
      ],
      "name": "transferFrom",
      "outputs": [],
      "stateMutability": "nonpayable",
      "type": "function"
    },
    {
      "inputs": [
        {
          "internalType": "address",
          "name": "to",
          "type": "address"
        },
        {
          "internalType": "uint256",
          "name": "tokenId",
          "type": "uint256"
        }
      ],
      "name": "mint",
      "outputs": [],
      "stateMutability": "nonpayable",
      "type": "function"
    },
    {
      "inputs": [
        {
          "internalType": "uint256",
          "name": "tokenId",
          "type": "uint256"
        },
        {
          "internalType": "string",
          "name": "tokenURI",
          "type": "string"
        }
      ],
      "name": "setTokenURI",
      "outputs": [],
      "stateMutability": "nonpayable",
      "type": "function"
    }
  ],
  "bytecode": "0x60806040523480156200001157600080fd5b506040518060400160405280600881526020017f4e465420636f696e0000000000000000000000000000000000000000000000008152506040518060400160405280600381526020017f4e46540000000000000000000000000000000000000000000000000000000000815250816000908051906020019062000096929190620000b8565b508060019080519060200190620000af929190620000b8565b505050620001cd565b828054620000c69062000168565b90600052602060002090601f016020900481019282620000ea576000855562000136565b82601f106200010557805160ff191683800117855562000136565b8280016001018555821562000136579182015b828111156200013557825182559160200191906001019062000118565b5b50905062000145919062000149565b5090565b5b80821115620001645760008160009055506001016200014a565b5090565b600060028204905060018216806200018157607f821691505b602082108114156200019857620001976200019e565b5b50919050565b7f4e487b7100000000000000000000000000000000000000000000000000000000600052602260045260246000fd5b612a5880620001dd6000396000f3fe608060405234801561001057600080fd5b50600436106100f55760003560e01c806342842e0e11610097578063a22cb46511610066578063a22cb46514610282578063b88d4fde1461029e578063c87b56dd146102ba578063e985e9c5146102ea576100f5565b806342842e0e146101e85780636352211e1461020457806370a082311461023457806395d89b4114610264576100f5565b8063095ea7b3116100d3578063095ea7b314610178578063162094c41461019457806323b872dd146101b057806340c10f19146101cc576100f5565b806301ffc9a7146100fa57806306fdde031461012a578063081812fc14610148575b600080fd5b610114600480360381019061010f9190611b98565b61031a565b60405161012191906123b0565b60405180910390f35b6101326103fc565b60405161013f91906123cb565b60405180910390f35b610162600480360381019061015d9190611bea565b61048e565b60405161016f9190612349565b60405180910390f35b610192600480360381019061018d9190611b5c565b610513565b005b6101ae60048036038101906101a99190611c13565b61062b565b005b6101ca60048036038101906101c59190611a56565b610639565b005b6101e660048036038101906101e19190611b5c565b610699565b005b61020260048036038101906101fd9190611a56565b6106a7565b005b61021e60048036038101906102199190611bea565b6106c7565b60405161022b9190612349565b60405180910390f35b61024e600480360381019061024991906119f1565b610779565b60405161025b91906125ed565b60405180910390f35b61026c610831565b60405161027991906123cb565b60405180910390f35b61029c60048036038101906102979190611b20565b6108c3565b005b6102b860048036038101906102b39190611aa5565b610a44565b005b6102d460048036038101906102cf9190611bea565b610aa6565b6040516102e191906123cb565b60405180910390f35b61030460048036038101906102ff9190611a1a565b610bf8565b60405161031191906123b0565b60405180910390f35b60007f80ac58cd000000000000000000000000000000000000000000000000000000007bffffffffffffffffffffffffffffffffffffffffffffffffffffffff1916827bffffffffffffffffffffffffffffffffffffffffffffffffffffffff191614806103e557507f5b5e139f000000000000000000000000000000000000000000000000000000007bffffffffffffffffffffffffffffffffffffffffffffffffffffffff1916827bffffffffffffffffffffffffffffffffffffffffffffffffffffffff1916145b806103f557506103f482610c8c565b5b9050919050565b60606000805461040b9061284d565b80601f01602080910402602001604051908101604052809291908181526020018280546104379061284d565b80156104845780601f1061045957610100808354040283529160200191610484565b820191906000526020600020905b81548152906001019060200180831161046757829003601f168201915b5050505050905090565b600061049982610cf6565b6104d8576040517f08c379a00000000000000000000000000000000000000000000000000000000081526004016104cf9061254d565b60405180910390fd5b6004600083815260200190815260200160002060009054906101000a900473ffffffffffffffffffffffffffffffffffffffff169050919050565b600061051e826106c7565b90508073ffffffffffffffffffffffffffffffffffffffff168373ffffffffffffffffffffffffffffffffffffffff16141561058f576040517f08c379a0000000000000000000000000000000000000000000000000000000008152600401610586906125ad565b60405180910390fd5b8073ffffffffffffffffffffffffffffffffffffffff166105ae610d62565b73ffffffffffffffffffffffffffffffffffffffff1614806105dd57506105dc816105d7610d62565b610bf8565b5b61061c576040517f08c379a00000000000000000000000000000000000000000000000000000000081526004016106139061248d565b60405180910390fd5b6106268383610d6a565b505050565b6106358282610e23565b5050565b61064a610644610d62565b82610e97565b610689576040517f08c379a0000000000000000000000000000000000000000000000000000000008152600401610680906125cd565b60405180910390fd5b610694838383610f75565b505050565b6106a382826111d1565b5050565b6106c283838360405180602001604052806000815250610a44565b505050565b6000806002600084815260200190815260200160002060009054906101000a900473ffffffffffffffffffffffffffffffffffffffff169050600073ffffffffffffffffffffffffffffffffffffffff168173ffffffffffffffffffffffffffffffffffffffff161415610770576040517f08c379a0000000000000000000000000000000000000000000000000000000008152600401610767906124cd565b60405180910390fd5b80915050919050565b60008073ffffffffffffffffffffffffffffffffffffffff168273ffffffffffffffffffffffffffffffffffffffff1614156107ea576040517f08c379a00000000000000000000000000000000000000000000000000000000081526004016107e1906124ad565b60405180910390fd5b600360008373ffffffffffffffffffffffffffffffffffffffff1673ffffffffffffffffffffffffffffffffffffffff168152602001908152602001600020549050919050565b6060600180546108409061284d565b80601f016020809104026020016040519081016040528092919081815260200182805461086c9061284d565b80156108b95780601f1061088e576101008083540402835291602001916108b9565b820191906000526020600020905b81548152906001019060200180831161089c57829003601f168201915b5050505050905090565b6108cb610d62565b73ffffffffffffffffffffffffffffffffffffffff168273ffffffffffffffffffffffffffffffffffffffff161415610939576040517f08c379a00000000000000000000000000000000000000000000000000000000081526004016109309061244d565b60405180910390fd5b8060056000610946610d62565b73ffffffffffffffffffffffffffffffffffffffff1673ffffffffffffffffffffffffffffffffffffffff16815260200190815260200160002060008473ffffffffffffffffffffffffffffffffffffffff1673ffffffffffffffffffffffffffffffffffffffff16815260200190815260200160002060006101000a81548160ff0219169083151502179055508173ffffffffffffffffffffffffffffffffffffffff166109f3610d62565b73ffffffffffffffffffffffffffffffffffffffff167f17307eab39ab6107e8899845ad3d59bd9653f200f220920489ca2b5937696c3183604051610a3891906123b0565b60405180910390a35050565b610a55610a4f610d62565b83610e97565b610a94576040517f08c379a0000000000000000000000000000000000000000000000000000000008152600401610a8b906125cd565b60405180910390fd5b610aa08484848461139f565b50505050565b6060610ab182610cf6565b610af0576040517f08c379a0000000000000000000000000000000000000000000000000000000008152600401610ae79061252d565b60405180910390fd5b6000600660008481526020019081526020016000208054610b109061284d565b80601f0160208091040260200160405190810160405280929190818152602001828054610b3c9061284d565b8015610b895780601f10610b5e57610100808354040283529160200191610b89565b820191906000526020600020905b815481529060010190602001808311610b6c57829003601f168201915b505050505090506000610b9a6113fb565b9050600081511415610bb0578192505050610bf3565b600082511115610be5578082604051602001610bcd929190612325565b60405160208183030381529060405292505050610bf3565b610bee84611412565b925050505b919050565b6000600560008473ffffffffffffffffffffffffffffffffffffffff1673ffffffffffffffffffffffffffffffffffffffff16815260200190815260200160002060008373ffffffffffffffffffffffffffffffffffffffff1673ffffffffffffffffffffffffffffffffffffffff16815260200190815260200160002060009054906101000a900460ff16905092915050565b60007f01ffc9a7000000000000000000000000000000000000000000000000000000007bffffffffffffffffffffffffffffffffffffffffffffffffffffffff1916827bffffffffffffffffffffffffffffffffffffffffffffffffffffffff1916149050919050565b60008073ffffffffffffffffffffffffffffffffffffffff166002600084815260200190815260200160002060009054906101000a900473ffffffffffffffffffffffffffffffffffffffff1673ffffffffffffffffffffffffffffffffffffffff1614159050919050565b600033905090565b816004600083815260200190815260200160002060006101000a81548173ffffffffffffffffffffffffffffffffffffffff021916908373ffffffffffffffffffffffffffffffffffffffff160217905550808273ffffffffffffffffffffffffffffffffffffffff16610ddd836106c7565b73ffffffffffffffffffffffffffffffffffffffff167f8c5be1e5ebec7d5bd14f71427d1e84f3dd0314c0f7b2291e5b200ac8c7c3b92560405160405180910390a45050565b610e2c82610cf6565b610e6b576040517f08c379a0000000000000000000000000000000000000000000000000000000008152600401610e62906124ed565b60405180910390fd5b80600660008481526020019081526020016000209080519060200190610e92929190611815565b505050565b6000610ea282610cf6565b610ee1576040517f08c379a0000000000000000000000000000000000000000000000000000000008152600401610ed89061246d565b60405180910390fd5b6000610eec836106c7565b90508073ffffffffffffffffffffffffffffffffffffffff168473ffffffffffffffffffffffffffffffffffffffff161480610f5b57508373ffffffffffffffffffffffffffffffffffffffff16610f438461048e565b73ffffffffffffffffffffffffffffffffffffffff16145b80610f6c5750610f6b8185610bf8565b5b91505092915050565b8273ffffffffffffffffffffffffffffffffffffffff16610f95826106c7565b73ffffffffffffffffffffffffffffffffffffffff1614610feb576040517f08c379a0000000000000000000000000000000000000000000000000000000008152600401610fe29061256d565b60405180910390fd5b600073ffffffffffffffffffffffffffffffffffffffff168273ffffffffffffffffffffffffffffffffffffffff16141561105b576040517f08c379a00000000000000000000000000000000000000000000000000000000081526004016110529061242d565b60405180910390fd5b6110668383836114b9565b611071600082610d6a565b6001600360008573ffffffffffffffffffffffffffffffffffffffff1673ffffffffffffffffffffffffffffffffffffffff16815260200190815260200160002060008282546110c19190612763565b925050819055506001600360008473ffffffffffffffffffffffffffffffffffffffff1673ffffffffffffffffffffffffffffffffffffffff168152602001908152602001600020600082825461111891906126dc565b92505081905550816002600083815260200190815260200160002060006101000a81548173ffffffffffffffffffffffffffffffffffffffff021916908373ffffffffffffffffffffffffffffffffffffffff160217905550808273ffffffffffffffffffffffffffffffffffffffff168473ffffffffffffffffffffffffffffffffffffffff167fddf252ad1be2c89b69c2b068fc378daa952ba7f163c4a11628f55a4df523b3ef60405160405180910390a4505050565b600073ffffffffffffffffffffffffffffffffffffffff168273ffffffffffffffffffffffffffffffffffffffff161415611241576040517f08c379a00000000000000000000000000000000000000000000000000000000081526004016112389061250d565b60405180910390fd5b61124a81610cf6565b1561128a576040517f08c379a00000000000000000000000000000000000000000000000000000000081526004016112819061240d565b60405180910390fd5b611296600083836114b9565b6001600360008473ffffffffffffffffffffffffffffffffffffffff1673ffffffffffffffffffffffffffffffffffffffff16815260200190815260200160002060008282546112e691906126dc565b92505081905550816002600083815260200190815260200160002060006101000a81548173ffffffffffffffffffffffffffffffffffffffff021916908373ffffffffffffffffffffffffffffffffffffffff160217905550808273ffffffffffffffffffffffffffffffffffffffff16600073ffffffffffffffffffffffffffffffffffffffff167fddf252ad1be2c89b69c2b068fc378daa952ba7f163c4a11628f55a4df523b3ef60405160405180910390a45050565b6113aa848484610f75565b6113b6848484846114be565b6113f5576040517f08c379a00000000000000000000000000000000000000000000000000000000081526004016113ec906123ed565b60405180910390fd5b50505050565b606060405180602001604052806000815250905090565b606061141d82610cf6565b61145c576040517f08c379a00000000000000000000000000000000000000000000000000000000081526004016114539061258d565b60405180910390fd5b60006114666113fb565b9050600081511161148657604051806020016040528060008152506114b1565b8061149084611655565b6040516020016114a1929190612325565b6040516020818303038152906040525b915050919050565b505050565b60006114df8473ffffffffffffffffffffffffffffffffffffffff16611802565b15611648578373ffffffffffffffffffffffffffffffffffffffff1663150b7a02611508610d62565b8786866040518563ffffffff1660e01b815260040161152a9493929190612364565b602060405180830381600087803b15801561154457600080fd5b505af192505050801561157557506040513d601f19601f820116820180604052508101906115729190611bc1565b60015b6115f8573d80600081146115a5576040519150601f19603f3d011682016040523d82523d6000602084013e6115aa565b606091505b506000815114156115f0576040517f08c379a00000000000000000000000000000000000000000000000000000000081526004016115e7906123ed565b60405180910390fd5b805181602001fd5b63150b7a0260e01b7bffffffffffffffffffffffffffffffffffffffffffffffffffffffff1916817bffffffffffffffffffffffffffffffffffffffffffffffffffffffff19161491505061164d565b600190505b949350505050565b6060600082141561169d576040518060400160405280600181526020017f300000000000000000000000000000000000000000000000000000000000000081525090506117fd565b600082905060005b600082146116cf5780806116b89061287f565b915050600a826116c89190612732565b91506116a5565b60008167ffffffffffffffff811115611711577f4e487b7100000000000000000000000000000000000000000000000000000000600052604160045260246000fd5b6040519080825280601f01601f1916602001820160405280156117435781602001600182028036833780820191505090505b5090505b600085146117f65760018261175c9190612763565b9150600a8561176b91906128c8565b603061177791906126dc565b60f81b8183815181106117b3577f4e487b7100000000000000000000000000000000000000000000000000000000600052603260045260246000fd5b60200101907effffffffffffffffffffffffffffffffffffffffffffffffffffffffffffff1916908160001a905350600a856117ef9190612732565b9450611747565b8093505050505b919050565b600080823b905060008111915050919050565b8280546118219061284d565b90600052602060002090601f016020900481019282611843576000855561188a565b82601f1061185c57805160ff191683800117855561188a565b8280016001018555821561188a579182015b8281111561188957825182559160200191906001019061186e565b5b509050611897919061189b565b5090565b5b808211156118b457600081600090555060010161189c565b5090565b60006118cb6118c684612639565b612608565b9050828152602081018484840111156118e357600080fd5b6118ee84828561280b565b509392505050565b600061190961190484612669565b612608565b90508281526020810184848401111561192157600080fd5b61192c84828561280b565b509392505050565b600081359050611943816129c6565b92915050565b600081359050611958816129dd565b92915050565b60008135905061196d816129f4565b92915050565b600081519050611982816129f4565b92915050565b600082601f83011261199957600080fd5b81356119a98482602086016118b8565b91505092915050565b600082601f8301126119c357600080fd5b81356119d38482602086016118f6565b91505092915050565b6000813590506119eb81612a0b565b92915050565b600060208284031215611a0357600080fd5b6000611a1184828501611934565b91505092915050565b60008060408385031215611a2d57600080fd5b6000611a3b85828601611934565b9250506020611a4c85828601611934565b9150509250929050565b600080600060608486031215611a6b57600080fd5b6000611a7986828701611934565b9350506020611a8a86828701611934565b9250506040611a9b868287016119dc565b9150509250925092565b60008060008060808587031215611abb57600080fd5b6000611ac987828801611934565b9450506020611ada87828801611934565b9350506040611aeb878288016119dc565b925050606085013567ffffffffffffffff811115611b0857600080fd5b611b1487828801611988565b91505092959194509250565b60008060408385031215611b3357600080fd5b6000611b4185828601611934565b9250506020611b5285828601611949565b9150509250929050565b60008060408385031215611b6f57600080fd5b6000611b7d85828601611934565b9250506020611b8e858286016119dc565b9150509250929050565b600060208284031215611baa57600080fd5b6000611bb88482850161195e565b91505092915050565b600060208284031215611bd357600080fd5b6000611be184828501611973565b91505092915050565b600060208284031215611bfc57600080fd5b6000611c0a848285016119dc565b91505092915050565b60008060408385031215611c2657600080fd5b6000611c34858286016119dc565b925050602083013567ffffffffffffffff811115611c5157600080fd5b611c5d858286016119b2565b9150509250929050565b611c7081612797565b82525050565b611c7f816127a9565b82525050565b6000611c9082612699565b611c9a81856126af565b9350611caa81856020860161281a565b611cb3816129b5565b840191505092915050565b6000611cc9826126a4565b611cd381856126c0565b9350611ce381856020860161281a565b611cec816129b5565b840191505092915050565b6000611d02826126a4565b611d0c81856126d1565b9350611d1c81856020860161281a565b80840191505092915050565b6000611d356032836126c0565b91507f4552433732313a207472616e7366657220746f206e6f6e20455243373231526560008301527f63656976657220696d706c656d656e74657200000000000000000000000000006020830152604082019050919050565b6000611d9b601c836126c0565b91507f4552433732313a20746f6b656e20616c7265616479206d696e746564000000006000830152602082019050919050565b6000611ddb6024836126c0565b91507f4552433732313a207472616e7366657220746f20746865207a65726f2061646460008301527f72657373000000000000000000000000000000000000000000000000000000006020830152604082019050919050565b6000611e416019836126c0565b91507f4552433732313a20617070726f766520746f2063616c6c6572000000000000006000830152602082019050919050565b6000611e81602c836126c0565b91507f4552433732313a206f70657261746f7220717565727920666f72206e6f6e657860008301527f697374656e7420746f6b656e00000000000000000000000000000000000000006020830152604082019050919050565b6000611ee76038836126c0565b91507f4552433732313a20617070726f76652063616c6c6572206973206e6f74206f7760008301527f6e6572206e6f7220617070726f76656420666f7220616c6c00000000000000006020830152604082019050919050565b6000611f4d602a836126c0565b91507f4552433732313a2062616c616e636520717565727920666f7220746865207a6560008301527f726f2061646472657373000000000000000000000000000000000000000000006020830152604082019050919050565b6000611fb36029836126c0565b91507f4552433732313a206f776e657220717565727920666f72206e6f6e657869737460008301527f656e7420746f6b656e00000000000000000000000000000000000000000000006020830152604082019050919050565b6000612019602e836126c0565b91507f45524337323155524953746f726167653a2055524920736574206f66206e6f6e60008301527f6578697374656e7420746f6b656e0000000000000000000000000000000000006020830152604082019050919050565b600061207f6020836126c0565b91507f4552433732313a206d696e7420746f20746865207a65726f20616464726573736000830152602082019050919050565b60006120bf6031836126c0565b91507f45524337323155524953746f726167653a2055524920717565727920666f722060008301527f6e6f6e6578697374656e7420746f6b656e0000000000000000000000000000006020830152604082019050919050565b6000612125602c836126c0565b91507f4552433732313a20617070726f76656420717565727920666f72206e6f6e657860008301527f697374656e7420746f6b656e00000000000000000000000000000000000000006020830152604082019050919050565b600061218b6029836126c0565b91507f4552433732313a207472616e73666572206f6620746f6b656e2074686174206960008301527f73206e6f74206f776e00000000000000000000000000000000000000000000006020830152604082019050919050565b60006121f1602f836126c0565b91507f4552433732314d657461646174613a2055524920717565727920666f72206e6f60008301527f6e6578697374656e7420746f6b656e00000000000000000000000000000000006020830152604082019050919050565b60006122576021836126c0565b91507f4552433732313a20617070726f76616c20746f2063757272656e74206f776e6560008301527f72000000000000000000000000000000000000000000000000000000000000006020830152604082019050919050565b60006122bd6031836126c0565b91507f4552433732313a207472616e736665722063616c6c6572206973206e6f74206f60008301527f776e6572206e6f7220617070726f7665640000000000000000000000000000006020830152604082019050919050565b61231f81612801565b82525050565b60006123318285611cf7565b915061233d8284611cf7565b91508190509392505050565b600060208201905061235e6000830184611c67565b92915050565b60006080820190506123796000830187611c67565b6123866020830186611c67565b6123936040830185612316565b81810360608301526123a58184611c85565b905095945050505050565b60006020820190506123c56000830184611c76565b92915050565b600060208201905081810360008301526123e58184611cbe565b905092915050565b6000602082019050818103600083015261240681611d28565b9050919050565b6000602082019050818103600083015261242681611d8e565b9050919050565b6000602082019050818103600083015261244681611dce565b9050919050565b6000602082019050818103600083015261246681611e34565b9050919050565b6000602082019050818103600083015261248681611e74565b9050919050565b600060208201905081810360008301526124a681611eda565b9050919050565b600060208201905081810360008301526124c681611f40565b9050919050565b600060208201905081810360008301526124e681611fa6565b9050919050565b600060208201905081810360008301526125068161200c565b9050919050565b6000602082019050818103600083015261252681612072565b9050919050565b60006020820190508181036000830152612546816120b2565b9050919050565b6000602082019050818103600083015261256681612118565b9050919050565b600060208201905081810360008301526125868161217e565b9050919050565b600060208201905081810360008301526125a6816121e4565b9050919050565b600060208201905081810360008301526125c68161224a565b9050919050565b600060208201905081810360008301526125e6816122b0565b9050919050565b60006020820190506126026000830184612316565b92915050565b6000604051905081810181811067ffffffffffffffff8211171561262f5761262e612986565b5b8060405250919050565b600067ffffffffffffffff82111561265457612653612986565b5b601f19601f8301169050602081019050919050565b600067ffffffffffffffff82111561268457612683612986565b5b601f19601f8301169050602081019050919050565b600081519050919050565b600081519050919050565b600082825260208201905092915050565b600082825260208201905092915050565b600081905092915050565b60006126e782612801565b91506126f283612801565b9250827fffffffffffffffffffffffffffffffffffffffffffffffffffffffffffffffff03821115612727576127266128f9565b5b828201905092915050565b600061273d82612801565b915061274883612801565b92508261275857612757612928565b5b828204905092915050565b600061276e82612801565b915061277983612801565b92508282101561278c5761278b6128f9565b5b828203905092915050565b60006127a2826127e1565b9050919050565b60008115159050919050565b60007fffffffff0000000000000000000000000000000000000000000000000000000082169050919050565b600073ffffffffffffffffffffffffffffffffffffffff82169050919050565b6000819050919050565b82818337600083830152505050565b60005b8381101561283857808201518184015260208101905061281d565b83811115612847576000848401525b50505050565b6000600282049050600182168061286557607f821691505b6020821081141561287957612878612957565b5b50919050565b600061288a82612801565b91507fffffffffffffffffffffffffffffffffffffffffffffffffffffffffffffffff8214156128bd576128bc6128f9565b5b600182019050919050565b60006128d382612801565b91506128de83612801565b9250826128ee576128ed612928565b5b828206905092915050565b7f4e487b7100000000000000000000000000000000000000000000000000000000600052601160045260246000fd5b7f4e487b7100000000000000000000000000000000000000000000000000000000600052601260045260246000fd5b7f4e487b7100000000000000000000000000000000000000000000000000000000600052602260045260246000fd5b7f4e487b7100000000000000000000000000000000000000000000000000000000600052604160045260246000fd5b6000601f19601f8301169050919050565b6129cf81612797565b81146129da57600080fd5b50565b6129e6816127a9565b81146129f157600080fd5b50565b6129fd816127b5565b8114612a0857600080fd5b50565b612a1481612801565b8114612a1f57600080fd5b5056fea264697066735822122012d29b5c4464182dee0dd1395a003eaa058b515ed225a926e7b7e2f760fec83664736f6c63430008000033",
  "immutableReferences": {},
  "source": "// SPDX-License-Identifier: MIT\n\npragma solidity ^0.8.0;\n\nimport \"@openzeppelin/contracts/token/ERC721/extensions/ERC721URIStorage.sol\";\n\ncontract ERC721Mock is ERC721URIStorage {\n    constructor() ERC721(\"NFT coin\", \"NFT\") {}\n\n    function mint(address to, uint256 tokenId) public {\n        _mint(to, tokenId);\n    }\n\n    function setTokenURI(uint256 tokenId, string memory tokenURI) public {\n        _setTokenURI(tokenId, tokenURI);\n    }\n}\n",
  "sourcePath": "/Users/szabolcs/Documents/Personal/Szakmai/Ethereum/nft-fractions-dex/contracts/ERC721Mock.sol",
  "compiler": {
    "name": "solc",
    "version": "0.8.0+commit.c7dfd78e.Emscripten.clang"
  },
  "schemaVersion": "3.3.4",
  "updatedAt": "2021-05-25T19:25:09.879Z",
  "networkType": "ethereum",
  "devdoc": {
    "kind": "dev",
    "methods": {
      "approve(address,uint256)": {
        "details": "See {IERC721-approve}."
      },
      "balanceOf(address)": {
        "details": "See {IERC721-balanceOf}."
      },
      "getApproved(uint256)": {
        "details": "See {IERC721-getApproved}."
      },
      "isApprovedForAll(address,address)": {
        "details": "See {IERC721-isApprovedForAll}."
      },
      "name()": {
        "details": "See {IERC721Metadata-name}."
      },
      "ownerOf(uint256)": {
        "details": "See {IERC721-ownerOf}."
      },
      "safeTransferFrom(address,address,uint256)": {
        "details": "See {IERC721-safeTransferFrom}."
      },
      "safeTransferFrom(address,address,uint256,bytes)": {
        "details": "See {IERC721-safeTransferFrom}."
      },
      "setApprovalForAll(address,bool)": {
        "details": "See {IERC721-setApprovalForAll}."
      },
      "supportsInterface(bytes4)": {
        "details": "See {IERC165-supportsInterface}."
      },
      "symbol()": {
        "details": "See {IERC721Metadata-symbol}."
      },
      "tokenURI(uint256)": {
        "details": "See {IERC721Metadata-tokenURI}."
      },
      "transferFrom(address,address,uint256)": {
        "details": "See {IERC721-transferFrom}."
      }
    },
    "version": 1
  },
  "userdoc": {
    "kind": "user",
    "methods": {},
    "version": 1
  }
}