{
  "contractName": "NftFractionsRepository",
  "abi": [
    {
      "anonymous": false,
      "inputs": [
        {
          "indexed": true,
          "internalType": "address",
          "name": "account",
          "type": "address"
        },
        {
          "indexed": true,
          "internalType": "address",
          "name": "operator",
          "type": "address"
        },
        {
          "indexed": false,
          "internalType": "bool",
          "name": "approved",
          "type": "bool"
        }
      ],
      "name": "ApprovalForAll",
      "type": "event"
    },
    {
      "anonymous": false,
      "inputs": [
        {
          "indexed": true,
          "internalType": "address",
          "name": "previousOwner",
          "type": "address"
        },
        {
          "indexed": true,
          "internalType": "address",
          "name": "newOwner",
          "type": "address"
        }
      ],
      "name": "OwnershipTransferred",
      "type": "event"
    },
    {
      "anonymous": false,
      "inputs": [
        {
          "indexed": false,
          "internalType": "address",
          "name": "account",
          "type": "address"
        }
      ],
      "name": "Paused",
      "type": "event"
    },
    {
      "anonymous": false,
      "inputs": [
        {
          "indexed": true,
          "internalType": "address",
          "name": "operator",
          "type": "address"
        },
        {
          "indexed": true,
          "internalType": "address",
          "name": "from",
          "type": "address"
        },
        {
          "indexed": true,
          "internalType": "address",
          "name": "to",
          "type": "address"
        },
        {
          "indexed": false,
          "internalType": "uint256[]",
          "name": "ids",
          "type": "uint256[]"
        },
        {
          "indexed": false,
          "internalType": "uint256[]",
          "name": "values",
          "type": "uint256[]"
        }
      ],
      "name": "TransferBatch",
      "type": "event"
    },
    {
      "anonymous": false,
      "inputs": [
        {
          "indexed": true,
          "internalType": "address",
          "name": "operator",
          "type": "address"
        },
        {
          "indexed": true,
          "internalType": "address",
          "name": "from",
          "type": "address"
        },
        {
          "indexed": true,
          "internalType": "address",
          "name": "to",
          "type": "address"
        },
        {
          "indexed": false,
          "internalType": "uint256",
          "name": "id",
          "type": "uint256"
        },
        {
          "indexed": false,
          "internalType": "uint256",
          "name": "value",
          "type": "uint256"
        }
      ],
      "name": "TransferSingle",
      "type": "event"
    },
    {
      "anonymous": false,
      "inputs": [
        {
          "indexed": false,
          "internalType": "string",
          "name": "value",
          "type": "string"
        },
        {
          "indexed": true,
          "internalType": "uint256",
          "name": "id",
          "type": "uint256"
        }
      ],
      "name": "URI",
      "type": "event"
    },
    {
      "anonymous": false,
      "inputs": [
        {
          "indexed": false,
          "internalType": "address",
          "name": "account",
          "type": "address"
        }
      ],
      "name": "Unpaused",
      "type": "event"
    },
    {
      "inputs": [
        {
          "internalType": "address",
          "name": "account",
          "type": "address"
        },
        {
          "internalType": "uint256",
          "name": "id",
          "type": "uint256"
        }
      ],
      "name": "balanceOf",
      "outputs": [
        {
          "internalType": "uint256",
          "name": "",
          "type": "uint256"
        }
      ],
      "stateMutability": "view",
      "type": "function",
      "constant": true
    },
    {
      "inputs": [
        {
          "internalType": "address[]",
          "name": "accounts",
          "type": "address[]"
        },
        {
          "internalType": "uint256[]",
          "name": "ids",
          "type": "uint256[]"
        }
      ],
      "name": "balanceOfBatch",
      "outputs": [
        {
          "internalType": "uint256[]",
          "name": "",
          "type": "uint256[]"
        }
      ],
      "stateMutability": "view",
      "type": "function",
      "constant": true
    },
    {
      "inputs": [
        {
          "internalType": "address",
          "name": "account",
          "type": "address"
        },
        {
          "internalType": "address",
          "name": "operator",
          "type": "address"
        }
      ],
      "name": "isApprovedForAll",
      "outputs": [
        {
          "internalType": "bool",
          "name": "",
          "type": "bool"
        }
      ],
      "stateMutability": "view",
      "type": "function",
      "constant": true
    },
    {
      "inputs": [],
      "name": "owner",
      "outputs": [
        {
          "internalType": "address",
          "name": "",
          "type": "address"
        }
      ],
      "stateMutability": "view",
      "type": "function",
      "constant": true
    },
    {
      "inputs": [],
      "name": "paused",
      "outputs": [
        {
          "internalType": "bool",
          "name": "",
          "type": "bool"
        }
      ],
      "stateMutability": "view",
      "type": "function",
      "constant": true
    },
    {
      "inputs": [],
      "name": "renounceOwnership",
      "outputs": [],
      "stateMutability": "nonpayable",
      "type": "function"
    },
    {
      "inputs": [
        {
          "internalType": "address",
          "name": "from",
          "type": "address"
        },
        {
          "internalType": "address",
          "name": "to",
          "type": "address"
        },
        {
          "internalType": "uint256[]",
          "name": "ids",
          "type": "uint256[]"
        },
        {
          "internalType": "uint256[]",
          "name": "amounts",
          "type": "uint256[]"
        },
        {
          "internalType": "bytes",
          "name": "data",
          "type": "bytes"
        }
      ],
      "name": "safeBatchTransferFrom",
      "outputs": [],
      "stateMutability": "nonpayable",
      "type": "function"
    },
    {
      "inputs": [
        {
          "internalType": "address",
          "name": "from",
          "type": "address"
        },
        {
          "internalType": "address",
          "name": "to",
          "type": "address"
        },
        {
          "internalType": "uint256",
          "name": "id",
          "type": "uint256"
        },
        {
          "internalType": "uint256",
          "name": "amount",
          "type": "uint256"
        },
        {
          "internalType": "bytes",
          "name": "data",
          "type": "bytes"
        }
      ],
      "name": "safeTransferFrom",
      "outputs": [],
      "stateMutability": "nonpayable",
      "type": "function"
    },
    {
      "inputs": [
        {
          "internalType": "address",
          "name": "operator",
          "type": "address"
        },
        {
          "internalType": "bool",
          "name": "approved",
          "type": "bool"
        }
      ],
      "name": "setApprovalForAll",
      "outputs": [],
      "stateMutability": "nonpayable",
      "type": "function"
    },
    {
      "inputs": [
        {
          "internalType": "bytes4",
          "name": "interfaceId",
          "type": "bytes4"
        }
      ],
      "name": "supportsInterface",
      "outputs": [
        {
          "internalType": "bool",
          "name": "",
          "type": "bool"
        }
      ],
      "stateMutability": "view",
      "type": "function",
      "constant": true
    },
    {
      "inputs": [
        {
          "internalType": "address",
          "name": "newOwner",
          "type": "address"
        }
      ],
      "name": "transferOwnership",
      "outputs": [],
      "stateMutability": "nonpayable",
      "type": "function"
    },
    {
      "inputs": [
        {
          "internalType": "uint256",
          "name": "",
          "type": "uint256"
        }
      ],
      "name": "uri",
      "outputs": [
        {
          "internalType": "string",
          "name": "",
          "type": "string"
        }
      ],
      "stateMutability": "view",
      "type": "function",
      "constant": true
    },
    {
      "inputs": [
        {
          "internalType": "string",
          "name": "uri_",
          "type": "string"
        }
      ],
      "name": "initialize",
      "outputs": [],
      "stateMutability": "nonpayable",
      "type": "function"
    },
    {
      "inputs": [
        {
          "internalType": "address",
          "name": "erc721ContractAddress",
          "type": "address"
        },
        {
          "internalType": "uint256",
          "name": "erc721TokenId",
          "type": "uint256"
        },
        {
          "internalType": "uint256",
          "name": "fractionsAmountToMint",
          "type": "uint256"
        }
      ],
      "name": "depositNft",
      "outputs": [],
      "stateMutability": "nonpayable",
      "type": "function"
    },
    {
      "inputs": [
        {
          "internalType": "uint256",
          "name": "tokenId",
          "type": "uint256"
        }
      ],
      "name": "withdrawNft",
      "outputs": [],
      "stateMutability": "nonpayable",
      "type": "function"
    },
    {
      "inputs": [
        {
          "internalType": "address",
          "name": "from",
          "type": "address"
        },
        {
          "internalType": "address",
          "name": "to",
          "type": "address"
        },
        {
          "internalType": "uint256",
          "name": "id",
          "type": "uint256"
        },
        {
          "internalType": "uint256",
          "name": "amount",
          "type": "uint256"
        },
        {
          "internalType": "bytes",
          "name": "data",
          "type": "bytes"
        }
      ],
      "name": "transferFrom",
      "outputs": [],
      "stateMutability": "nonpayable",
      "type": "function"
    },
    {
      "inputs": [
        {
          "internalType": "uint256",
          "name": "_tokenId",
          "type": "uint256"
        }
      ],
      "name": "getTokenData",
      "outputs": [
        {
          "internalType": "address",
          "name": "erc721ContractAddress",
          "type": "address"
        },
        {
          "internalType": "uint256",
          "name": "erc721TokenId",
          "type": "uint256"
        },
        {
          "internalType": "uint256",
          "name": "totalFractionsAmount",
          "type": "uint256"
        }
      ],
      "stateMutability": "view",
      "type": "function",
      "constant": true
    },
    {
      "inputs": [],
      "name": "pause",
      "outputs": [],
      "stateMutability": "nonpayable",
      "type": "function"
    },
    {
      "inputs": [
        {
          "internalType": "address",
          "name": "shareOwner",
          "type": "address"
        }
      ],
      "name": "getTokenIdsByShareOwner",
      "outputs": [
        {
          "internalType": "uint256[]",
          "name": "",
          "type": "uint256[]"
        }
      ],
      "stateMutability": "view",
      "type": "function",
      "constant": true
    },
    {
      "inputs": [
        {
          "internalType": "uint256",
          "name": "tokenId",
          "type": "uint256"
        }
      ],
      "name": "getOwnersBYtokenId",
      "outputs": [
        {
          "internalType": "address[]",
          "name": "",
          "type": "address[]"
        }
      ],
      "stateMutability": "view",
      "type": "function",
      "constant": true
    },
    {
      "inputs": [],
      "name": "getTokenIds",
      "outputs": [
        {
          "internalType": "uint256[]",
          "name": "",
          "type": "uint256[]"
        }
      ],
      "stateMutability": "view",
      "type": "function",
      "constant": true
    }
  ],
  "bytecode": "0x608060405234801561001057600080fd5b50614ea4806100206000396000f3fe608060405234801561001057600080fd5b50600436106101365760003560e01c8063715018a6116100b8578063b09afec11161007c578063b09afec114610339578063e09a3cb41461036b578063e985e9c514610387578063f242432a146103b7578063f2fde38b146103d3578063f62d1888146103ef57610136565b8063715018a6146102cf5780638456cb59146102d95780638da5cb5b146102e3578063910efae814610301578063a22cb4651461031d57610136565b806333ae11ae116100ff57806333ae11ae146102175780634e1273f4146102475780635c975abb14610277578063605105f01461029557806367f718a9146102b157610136565b8062fdd58e1461013b57806301ffc9a71461016b5780630e89341c1461019b578063180e1ef8146101cb5780632eb2c2d6146101fb575b600080fd5b610155600480360381019061015091906139ba565b61040b565b604051610162919061491f565b60405180910390f35b61018560048036038101906101809190613ab1565b6104d5565b6040516101929190614662565b60405180910390f35b6101b560048036038101906101b09190613b44565b6105b7565b6040516101c2919061467d565b60405180910390f35b6101e560048036038101906101e091906137a2565b61064b565b6040516101f29190614609565b60405180910390f35b61021560048036038101906102109190613830565b6106e2565b005b610231600480360381019061022c9190613b44565b610adb565b60405161023e91906145e7565b60405180910390f35b610261600480360381019061025c9190613a45565b610b7c565b60405161026e9190614609565b60405180910390f35b61027f610d2d565b60405161028c9190614662565b60405180910390f35b6102af60048036038101906102aa91906138ef565b610d44565b005b6102b9611135565b6040516102c69190614609565b60405180910390f35b6102d761118d565b005b6102e16112ca565b005b6102eb611350565b6040516102f8919061449c565b60405180910390f35b61031b60048036038101906103169190613b44565b61137a565b005b6103376004803603810190610332919061397e565b6116e7565b005b610353600480360381019061034e9190613b44565b611868565b604051610362939291906145b0565b60405180910390f35b610385600480360381019061038091906139f6565b6118df565b005b6103a1600480360381019061039c91906137f4565b611c95565b6040516103ae9190614662565b60405180910390f35b6103d160048036038101906103cc91906138ef565b611d29565b005b6103ed60048036038101906103e891906137a2565b612044565b005b61040960048036038101906104049190613b03565b6121f0565b005b60008073ffffffffffffffffffffffffffffffffffffffff168373ffffffffffffffffffffffffffffffffffffffff16141561047c576040517f08c379a00000000000000000000000000000000000000000000000000000000081526004016104739061471f565b60405180910390fd5b6065600083815260200190815260200160002060008473ffffffffffffffffffffffffffffffffffffffff1673ffffffffffffffffffffffffffffffffffffffff16815260200190815260200160002054905092915050565b60007fd9b67a26000000000000000000000000000000000000000000000000000000007bffffffffffffffffffffffffffffffffffffffffffffffffffffffff1916827bffffffffffffffffffffffffffffffffffffffffffffffffffffffff191614806105a057507f0e89341c000000000000000000000000000000000000000000000000000000007bffffffffffffffffffffffffffffffffffffffffffffffffffffffff1916827bffffffffffffffffffffffffffffffffffffffffffffffffffffffff1916145b806105b057506105af826122f3565b5b9050919050565b6060606780546105c690614c36565b80601f01602080910402602001604051908101604052809291908181526020018280546105f290614c36565b801561063f5780601f106106145761010080835404028352916020019161063f565b820191906000526020600020905b81548152906001019060200180831161062257829003601f168201915b50505050509050919050565b606060fd60008373ffffffffffffffffffffffffffffffffffffffff1673ffffffffffffffffffffffffffffffffffffffff1681526020019081526020016000208054806020026020016040519081016040528092919081815260200182805480156106d657602002820191906000526020600020905b8154815260200190600101908083116106c2575b50505050509050919050565b8151835114610726576040517f08c379a000000000000000000000000000000000000000000000000000000000815260040161071d906148bf565b60405180910390fd5b600073ffffffffffffffffffffffffffffffffffffffff168473ffffffffffffffffffffffffffffffffffffffff161415610796576040517f08c379a000000000000000000000000000000000000000000000000000000000815260040161078d906147bf565b60405180910390fd5b61079e61235d565b73ffffffffffffffffffffffffffffffffffffffff168573ffffffffffffffffffffffffffffffffffffffff1614806107e457506107e3856107de61235d565b611c95565b5b610823576040517f08c379a000000000000000000000000000000000000000000000000000000000815260040161081a906147df565b60405180910390fd5b600061082d61235d565b905061083d818787878787612365565b60005b8451811015610a46576000858281518110610884577f4e487b7100000000000000000000000000000000000000000000000000000000600052603260045260246000fd5b6020026020010151905060008583815181106108c9577f4e487b7100000000000000000000000000000000000000000000000000000000600052603260045260246000fd5b6020026020010151905060006065600084815260200190815260200160002060008b73ffffffffffffffffffffffffffffffffffffffff1673ffffffffffffffffffffffffffffffffffffffff1681526020019081526020016000205490508181101561096b576040517f08c379a00000000000000000000000000000000000000000000000000000000081526004016109629061483f565b60405180910390fd5b81816109779190614b4c565b6065600085815260200190815260200160002060008c73ffffffffffffffffffffffffffffffffffffffff1673ffffffffffffffffffffffffffffffffffffffff16815260200190815260200160002081905550816065600085815260200190815260200160002060008b73ffffffffffffffffffffffffffffffffffffffff1673ffffffffffffffffffffffffffffffffffffffff1681526020019081526020016000206000828254610a2b9190614af6565b9250508190555050505080610a3f90614c68565b9050610840565b508473ffffffffffffffffffffffffffffffffffffffff168673ffffffffffffffffffffffffffffffffffffffff168273ffffffffffffffffffffffffffffffffffffffff167f4a39dc06d4c0dbc64b70af90fd698a233a518aa5d07e595d983b8c0526c8f7fb8787604051610abd92919061462b565b60405180910390a4610ad381878787878761236d565b505050505050565b606060fe6000838152602001908152602001600020805480602002602001604051908101604052809291908181526020018280548015610b7057602002820191906000526020600020905b8160009054906101000a900473ffffffffffffffffffffffffffffffffffffffff1673ffffffffffffffffffffffffffffffffffffffff1681526020019060010190808311610b26575b50505050509050919050565b60608151835114610bc2576040517f08c379a0000000000000000000000000000000000000000000000000000000008152600401610bb99061489f565b60405180910390fd5b6000835167ffffffffffffffff811115610c05577f4e487b7100000000000000000000000000000000000000000000000000000000600052604160045260246000fd5b604051908082528060200260200182016040528015610c335781602001602082028036833780820191505090505b50905060005b8451811015610d2257610ccc858281518110610c7e577f4e487b7100000000000000000000000000000000000000000000000000000000600052603260045260246000fd5b6020026020010151858381518110610cbf577f4e487b7100000000000000000000000000000000000000000000000000000000600052603260045260246000fd5b602002602001015161040b565b828281518110610d05577f4e487b7100000000000000000000000000000000000000000000000000000000600052603260045260246000fd5b60200260200101818152505080610d1b90614c68565b9050610c39565b508091505092915050565b6000609760009054906101000a900460ff16905090565b610d4c610d2d565b15610d8c576040517f08c379a0000000000000000000000000000000000000000000000000000000008152600401610d83906148ff565b60405180910390fd5b6000610d98868561040b565b90506000610da6868661040b565b9050610db58787878787611d29565b81841061104857600060fe60008781526020019081526020016000208054905090506000805b82811015610ea75760fe60008981526020019081526020016000208181548110610e2e577f4e487b7100000000000000000000000000000000000000000000000000000000600052603260045260246000fd5b9060005260206000200160009054906101000a900473ffffffffffffffffffffffffffffffffffffffff1673ffffffffffffffffffffffffffffffffffffffff168a73ffffffffffffffffffffffffffffffffffffffff161415610e9457809150610ea7565b8080610e9f90614c68565b915050610ddb565b5060fe6000888152602001908152602001600020600183610ec89190614b4c565b81548110610eff577f4e487b7100000000000000000000000000000000000000000000000000000000600052603260045260246000fd5b9060005260206000200160009054906101000a900473ffffffffffffffffffffffffffffffffffffffff1660fe60008981526020019081526020016000208281548110610f75577f4e487b7100000000000000000000000000000000000000000000000000000000600052603260045260246000fd5b9060005260206000200160006101000a81548173ffffffffffffffffffffffffffffffffffffffff021916908373ffffffffffffffffffffffffffffffffffffffff16021790555060fe6000888152602001908152602001600020805480611006577f4e487b7100000000000000000000000000000000000000000000000000000000600052603160045260246000fd5b6001900381819060005260206000200160006101000a81549073ffffffffffffffffffffffffffffffffffffffff02191690559055611045898861253d565b50505b600081141561112c5760fe6000868152602001908152602001600020869080600181540180825580915050600190039060005260206000200160009091909190916101000a81548173ffffffffffffffffffffffffffffffffffffffff021916908373ffffffffffffffffffffffffffffffffffffffff16021790555060fd60008773ffffffffffffffffffffffffffffffffffffffff1673ffffffffffffffffffffffffffffffffffffffff1681526020019081526020016000208590806001815401808255809150506001900390600052602060002001600090919091909150555b50505050505050565b606060ff80548060200260200160405190810160405280929190818152602001828054801561118357602002820191906000526020600020905b81548152602001906001019080831161116f575b5050505050905090565b61119561235d565b73ffffffffffffffffffffffffffffffffffffffff166111b3611350565b73ffffffffffffffffffffffffffffffffffffffff1614611209576040517f08c379a00000000000000000000000000000000000000000000000000000000081526004016112009061485f565b60405180910390fd5b600073ffffffffffffffffffffffffffffffffffffffff1660c960009054906101000a900473ffffffffffffffffffffffffffffffffffffffff1673ffffffffffffffffffffffffffffffffffffffff167f8be0079c531659141344cd1fd0a4f28419497f9722a3daafe3b4186f6b6457e060405160405180910390a3600060c960006101000a81548173ffffffffffffffffffffffffffffffffffffffff021916908373ffffffffffffffffffffffffffffffffffffffff160217905550565b6112d261235d565b73ffffffffffffffffffffffffffffffffffffffff166112f0611350565b73ffffffffffffffffffffffffffffffffffffffff1614611346576040517f08c379a000000000000000000000000000000000000000000000000000000000815260040161133d9061485f565b60405180910390fd5b61134e6127d9565b565b600060c960009054906101000a900473ffffffffffffffffffffffffffffffffffffffff16905090565b611382610d2d565b156113c2576040517f08c379a00000000000000000000000000000000000000000000000000000000081526004016113b9906148ff565b60405180910390fd5b600060fc600083815260200190815260200160002060020154905060006113e9338461040b565b905080821461142d576040517f08c379a0000000000000000000000000000000000000000000000000000000008152600401611424906146df565b60405180910390fd5b600060fc600085815260200190815260200160002060000160009054906101000a900473ffffffffffffffffffffffffffffffffffffffff169050600060fc600086815260200190815260200160002060010154905060008290508073ffffffffffffffffffffffffffffffffffffffff166323b872dd3033856040518463ffffffff1660e01b81526004016114c59392919061451f565b600060405180830381600087803b1580156114df57600080fd5b505af11580156114f3573d6000803e3d6000fd5b5050505061150233878761287c565b61150c338761253d565b600060ff8054905090506000805b828110156115895760ff818154811061155c577f4e487b7100000000000000000000000000000000000000000000000000000000600052603260045260246000fd5b906000526020600020015489141561157657809150611589565b808061158190614c68565b91505061151a565b5060ff6001836115999190614b4c565b815481106115d0577f4e487b7100000000000000000000000000000000000000000000000000000000600052603260045260246000fd5b906000526020600020015460ff8281548110611615577f4e487b7100000000000000000000000000000000000000000000000000000000600052603260045260246000fd5b906000526020600020018190555060ff80548061165b577f4e487b7100000000000000000000000000000000000000000000000000000000600052603160045260246000fd5b6001900381819060005260206000200160009055905560fe60008981526020019081526020016000206000611690919061342d565b60fc6000898152602001908152602001600020600080820160006101000a81549073ffffffffffffffffffffffffffffffffffffffff02191690556001820160009055600282016000905550505050505050505050565b8173ffffffffffffffffffffffffffffffffffffffff1661170661235d565b73ffffffffffffffffffffffffffffffffffffffff16141561175d576040517f08c379a00000000000000000000000000000000000000000000000000000000081526004016117549061487f565b60405180910390fd5b806066600061176a61235d565b73ffffffffffffffffffffffffffffffffffffffff1673ffffffffffffffffffffffffffffffffffffffff16815260200190815260200160002060008473ffffffffffffffffffffffffffffffffffffffff1673ffffffffffffffffffffffffffffffffffffffff16815260200190815260200160002060006101000a81548160ff0219169083151502179055508173ffffffffffffffffffffffffffffffffffffffff1661181761235d565b73ffffffffffffffffffffffffffffffffffffffff167f17307eab39ab6107e8899845ad3d59bd9653f200f220920489ca2b5937696c318360405161185c9190614662565b60405180910390a35050565b600080600060fc600085815260200190815260200160002060000160009054906101000a900473ffffffffffffffffffffffffffffffffffffffff1660fc60008681526020019081526020016000206001015460fc6000878152602001908152602001600020600201549250925092509193909250565b6118e7610d2d565b15611927576040517f08c379a000000000000000000000000000000000000000000000000000000000815260040161191e906148ff565b60405180910390fd5b60008390503373ffffffffffffffffffffffffffffffffffffffff168173ffffffffffffffffffffffffffffffffffffffff16636352211e856040518263ffffffff1660e01b815260040161197c919061491f565b60206040518083038186803b15801561199457600080fd5b505afa1580156119a8573d6000803e3d6000fd5b505050506040513d601f19601f820116820180604052508101906119cc91906137cb565b73ffffffffffffffffffffffffffffffffffffffff1614611a22576040517f08c379a0000000000000000000000000000000000000000000000000000000008152600401611a19906146ff565b60405180910390fd5b8073ffffffffffffffffffffffffffffffffffffffff166323b872dd3330866040518463ffffffff1660e01b8152600401611a5f9392919061451f565b600060405180830381600087803b158015611a7957600080fd5b505af1158015611a8d573d6000803e3d6000fd5b50505050611a9b60fb612aa4565b6000611aa760fb612aba565b9050611ac433828560405180602001604052806000815250612ac8565b611acc61344e565b85816000019073ffffffffffffffffffffffffffffffffffffffff16908173ffffffffffffffffffffffffffffffffffffffff168152505084816020018181525050838160400181815250508060fc600084815260200190815260200160002060008201518160000160006101000a81548173ffffffffffffffffffffffffffffffffffffffff021916908373ffffffffffffffffffffffffffffffffffffffff160217905550602082015181600101556040820151816002015590505060fd60003373ffffffffffffffffffffffffffffffffffffffff1673ffffffffffffffffffffffffffffffffffffffff16815260200190815260200160002082908060018154018082558091505060019003906000526020600020016000909190919091505560fe6000838152602001908152602001600020339080600181540180825580915050600190039060005260206000200160009091909190916101000a81548173ffffffffffffffffffffffffffffffffffffffff021916908373ffffffffffffffffffffffffffffffffffffffff16021790555060ff829080600181540180825580915050600190039060005260206000200160009091909190915055505050505050565b6000606660008473ffffffffffffffffffffffffffffffffffffffff1673ffffffffffffffffffffffffffffffffffffffff16815260200190815260200160002060008373ffffffffffffffffffffffffffffffffffffffff1673ffffffffffffffffffffffffffffffffffffffff16815260200190815260200160002060009054906101000a900460ff16905092915050565b600073ffffffffffffffffffffffffffffffffffffffff168473ffffffffffffffffffffffffffffffffffffffff161415611d99576040517f08c379a0000000000000000000000000000000000000000000000000000000008152600401611d90906147bf565b60405180910390fd5b611da161235d565b73ffffffffffffffffffffffffffffffffffffffff168573ffffffffffffffffffffffffffffffffffffffff161480611de75750611de685611de161235d565b611c95565b5b611e26576040517f08c379a0000000000000000000000000000000000000000000000000000000008152600401611e1d9061477f565b60405180910390fd5b6000611e3061235d565b9050611e50818787611e4188612c5f565b611e4a88612c5f565b87612365565b60006065600086815260200190815260200160002060008873ffffffffffffffffffffffffffffffffffffffff1673ffffffffffffffffffffffffffffffffffffffff16815260200190815260200160002054905083811015611ee8576040517f08c379a0000000000000000000000000000000000000000000000000000000008152600401611edf9061483f565b60405180910390fd5b8381611ef49190614b4c565b6065600087815260200190815260200160002060008973ffffffffffffffffffffffffffffffffffffffff1673ffffffffffffffffffffffffffffffffffffffff16815260200190815260200160002081905550836065600087815260200190815260200160002060008873ffffffffffffffffffffffffffffffffffffffff1673ffffffffffffffffffffffffffffffffffffffff1681526020019081526020016000206000828254611fa89190614af6565b925050819055508573ffffffffffffffffffffffffffffffffffffffff168773ffffffffffffffffffffffffffffffffffffffff168373ffffffffffffffffffffffffffffffffffffffff167fc3d58168c5ae7397731d063d5bbf3d657854427343f4c083240f7aacaa2d0f62888860405161202592919061493a565b60405180910390a461203b828888888888612d25565b50505050505050565b61204c61235d565b73ffffffffffffffffffffffffffffffffffffffff1661206a611350565b73ffffffffffffffffffffffffffffffffffffffff16146120c0576040517f08c379a00000000000000000000000000000000000000000000000000000000081526004016120b79061485f565b60405180910390fd5b600073ffffffffffffffffffffffffffffffffffffffff168173ffffffffffffffffffffffffffffffffffffffff161415612130576040517f08c379a00000000000000000000000000000000000000000000000000000000081526004016121279061473f565b60405180910390fd5b8073ffffffffffffffffffffffffffffffffffffffff1660c960009054906101000a900473ffffffffffffffffffffffffffffffffffffffff1673ffffffffffffffffffffffffffffffffffffffff167f8be0079c531659141344cd1fd0a4f28419497f9722a3daafe3b4186f6b6457e060405160405180910390a38060c960006101000a81548173ffffffffffffffffffffffffffffffffffffffff021916908373ffffffffffffffffffffffffffffffffffffffff16021790555050565b600060019054906101000a900460ff1680612216575060008054906101000a900460ff16155b612255576040517f08c379a000000000000000000000000000000000000000000000000000000000815260040161224c906147ff565b60405180910390fd5b60008060019054906101000a900460ff1615905080156122a5576001600060016101000a81548160ff02191690831515021790555060016000806101000a81548160ff0219169083151502179055505b6122ad612ef5565b6122b5612fce565b6122bd6130a7565b6122c68261319b565b6122ce61327e565b80156122ef5760008060016101000a81548160ff0219169083151502179055505b5050565b60007f01ffc9a7000000000000000000000000000000000000000000000000000000007bffffffffffffffffffffffffffffffffffffffffffffffffffffffff1916827bffffffffffffffffffffffffffffffffffffffffffffffffffffffff1916149050919050565b600033905090565b505050505050565b61238c8473ffffffffffffffffffffffffffffffffffffffff16613400565b15612535578373ffffffffffffffffffffffffffffffffffffffff1663bc197c8187878686866040518663ffffffff1660e01b81526004016123d29594939291906144b7565b602060405180830381600087803b1580156123ec57600080fd5b505af192505050801561241d57506040513d601f19601f8201168201806040525081019061241a9190613ada565b60015b6124ac57612429614d5c565b806124345750612471565b806040517f08c379a0000000000000000000000000000000000000000000000000000000008152600401612468919061467d565b60405180910390fd5b6040517f08c379a00000000000000000000000000000000000000000000000000000000081526004016124a39061469f565b60405180910390fd5b63bc197c8160e01b7bffffffffffffffffffffffffffffffffffffffffffffffffffffffff1916817bffffffffffffffffffffffffffffffffffffffffffffffffffffffff191614612533576040517f08c379a000000000000000000000000000000000000000000000000000000000815260040161252a906146bf565b60405180910390fd5b505b505050505050565b600060fd60008473ffffffffffffffffffffffffffffffffffffffff1673ffffffffffffffffffffffffffffffffffffffff1681526020019081526020016000208054905090506000805b828110156126345760fd60008673ffffffffffffffffffffffffffffffffffffffff1673ffffffffffffffffffffffffffffffffffffffff1681526020019081526020016000208181548110612607577f4e487b7100000000000000000000000000000000000000000000000000000000600052603260045260246000fd5b906000526020600020015484141561262157809150612634565b808061262c90614c68565b915050612588565b5060fd60008573ffffffffffffffffffffffffffffffffffffffff1673ffffffffffffffffffffffffffffffffffffffff1681526020019081526020016000206001836126819190614b4c565b815481106126b8577f4e487b7100000000000000000000000000000000000000000000000000000000600052603260045260246000fd5b906000526020600020015460fd60008673ffffffffffffffffffffffffffffffffffffffff1673ffffffffffffffffffffffffffffffffffffffff168152602001908152602001600020828154811061273a577f4e487b7100000000000000000000000000000000000000000000000000000000600052603260045260246000fd5b906000526020600020018190555060fd60008573ffffffffffffffffffffffffffffffffffffffff1673ffffffffffffffffffffffffffffffffffffffff1681526020019081526020016000208054806127bd577f4e487b7100000000000000000000000000000000000000000000000000000000600052603160045260246000fd5b6001900381819060005260206000200160009055905550505050565b6127e1610d2d565b15612821576040517f08c379a00000000000000000000000000000000000000000000000000000000081526004016128189061479f565b60405180910390fd5b6001609760006101000a81548160ff0219169083151502179055507f62e78cea01bee320cd4e420270b5ea74000d11b0c9f74754ebdbfc544b05a25861286561235d565b604051612872919061449c565b60405180910390a1565b600073ffffffffffffffffffffffffffffffffffffffff168373ffffffffffffffffffffffffffffffffffffffff1614156128ec576040517f08c379a00000000000000000000000000000000000000000000000000000000081526004016128e39061481f565b60405180910390fd5b60006128f661235d565b90506129268185600061290887612c5f565b61291187612c5f565b60405180602001604052806000815250612365565b60006065600085815260200190815260200160002060008673ffffffffffffffffffffffffffffffffffffffff1673ffffffffffffffffffffffffffffffffffffffff168152602001908152602001600020549050828110156129be576040517f08c379a00000000000000000000000000000000000000000000000000000000081526004016129b59061475f565b60405180910390fd5b82816129ca9190614b4c565b6065600086815260200190815260200160002060008773ffffffffffffffffffffffffffffffffffffffff1673ffffffffffffffffffffffffffffffffffffffff16815260200190815260200160002081905550600073ffffffffffffffffffffffffffffffffffffffff168573ffffffffffffffffffffffffffffffffffffffff168373ffffffffffffffffffffffffffffffffffffffff167fc3d58168c5ae7397731d063d5bbf3d657854427343f4c083240f7aacaa2d0f628787604051612a9592919061493a565b60405180910390a45050505050565b6001816000016000828254019250508190555050565b600081600001549050919050565b600073ffffffffffffffffffffffffffffffffffffffff168473ffffffffffffffffffffffffffffffffffffffff161415612b38576040517f08c379a0000000000000000000000000000000000000000000000000000000008152600401612b2f906148df565b60405180910390fd5b6000612b4261235d565b9050612b6381600087612b5488612c5f565b612b5d88612c5f565b87612365565b826065600086815260200190815260200160002060008773ffffffffffffffffffffffffffffffffffffffff1673ffffffffffffffffffffffffffffffffffffffff1681526020019081526020016000206000828254612bc39190614af6565b925050819055508473ffffffffffffffffffffffffffffffffffffffff16600073ffffffffffffffffffffffffffffffffffffffff168273ffffffffffffffffffffffffffffffffffffffff167fc3d58168c5ae7397731d063d5bbf3d657854427343f4c083240f7aacaa2d0f628787604051612c4192919061493a565b60405180910390a4612c5881600087878787612d25565b5050505050565b60606000600167ffffffffffffffff811115612ca4577f4e487b7100000000000000000000000000000000000000000000000000000000600052604160045260246000fd5b604051908082528060200260200182016040528015612cd25781602001602082028036833780820191505090505b5090508281600081518110612d10577f4e487b7100000000000000000000000000000000000000000000000000000000600052603260045260246000fd5b60200260200101818152505080915050919050565b612d448473ffffffffffffffffffffffffffffffffffffffff16613400565b15612eed578373ffffffffffffffffffffffffffffffffffffffff1663f23a6e6187878686866040518663ffffffff1660e01b8152600401612d8a959493929190614556565b602060405180830381600087803b158015612da457600080fd5b505af1925050508015612dd557506040513d601f19601f82011682018060405250810190612dd29190613ada565b60015b612e6457612de1614d5c565b80612dec5750612e29565b806040517f08c379a0000000000000000000000000000000000000000000000000000000008152600401612e20919061467d565b60405180910390fd5b6040517f08c379a0000000000000000000000000000000000000000000000000000000008152600401612e5b9061469f565b60405180910390fd5b63f23a6e6160e01b7bffffffffffffffffffffffffffffffffffffffffffffffffffffffff1916817bffffffffffffffffffffffffffffffffffffffffffffffffffffffff191614612eeb576040517f08c379a0000000000000000000000000000000000000000000000000000000008152600401612ee2906146bf565b60405180910390fd5b505b505050505050565b600060019054906101000a900460ff1680612f1b575060008054906101000a900460ff16155b612f5a576040517f08c379a0000000000000000000000000000000000000000000000000000000008152600401612f51906147ff565b60405180910390fd5b60008060019054906101000a900460ff161590508015612faa576001600060016101000a81548160ff02191690831515021790555060016000806101000a81548160ff0219169083151502179055505b8015612fcb5760008060016101000a81548160ff0219169083151502179055505b50565b600060019054906101000a900460ff1680612ff4575060008054906101000a900460ff16155b613033576040517f08c379a000000000000000000000000000000000000000000000000000000000815260040161302a906147ff565b60405180910390fd5b60008060019054906101000a900460ff161590508015613083576001600060016101000a81548160ff02191690831515021790555060016000806101000a81548160ff0219169083151502179055505b80156130a45760008060016101000a81548160ff0219169083151502179055505b50565b600060019054906101000a900460ff16806130cd575060008054906101000a900460ff16155b61310c576040517f08c379a0000000000000000000000000000000000000000000000000000000008152600401613103906147ff565b60405180910390fd5b60008060019054906101000a900460ff16159050801561315c576001600060016101000a81548160ff02191690831515021790555060016000806101000a81548160ff0219169083151502179055505b6000609760006101000a81548160ff02191690831515021790555080156131985760008060016101000a81548160ff0219169083151502179055505b50565b600060019054906101000a900460ff16806131c1575060008054906101000a900460ff16155b613200576040517f08c379a00000000000000000000000000000000000000000000000000000000081526004016131f7906147ff565b60405180910390fd5b60008060019054906101000a900460ff161590508015613250576001600060016101000a81548160ff02191690831515021790555060016000806101000a81548160ff0219169083151502179055505b61325982613413565b801561327a5760008060016101000a81548160ff0219169083151502179055505b5050565b600060019054906101000a900460ff16806132a4575060008054906101000a900460ff16155b6132e3576040517f08c379a00000000000000000000000000000000000000000000000000000000081526004016132da906147ff565b60405180910390fd5b60008060019054906101000a900460ff161590508015613333576001600060016101000a81548160ff02191690831515021790555060016000806101000a81548160ff0219169083151502179055505b600061333d61235d565b90508060c960006101000a81548173ffffffffffffffffffffffffffffffffffffffff021916908373ffffffffffffffffffffffffffffffffffffffff1602179055508073ffffffffffffffffffffffffffffffffffffffff16600073ffffffffffffffffffffffffffffffffffffffff167f8be0079c531659141344cd1fd0a4f28419497f9722a3daafe3b4186f6b6457e060405160405180910390a35080156133fd5760008060016101000a81548160ff0219169083151502179055505b50565b600080823b905060008111915050919050565b8060679080519060200190613429929190613485565b5050565b508054600082559060005260206000209081019061344b919061350b565b50565b6040518060600160405280600073ffffffffffffffffffffffffffffffffffffffff16815260200160008152602001600081525090565b82805461349190614c36565b90600052602060002090601f0160209004810192826134b357600085556134fa565b82601f106134cc57805160ff19168380011785556134fa565b828001600101855582156134fa579182015b828111156134f95782518255916020019190600101906134de565b5b509050613507919061350b565b5090565b5b8082111561352457600081600090555060010161350c565b5090565b600061353b61353684614994565b614963565b9050808382526020820190508285602086028201111561355a57600080fd5b60005b8581101561358a5781613570888261367c565b84526020840193506020830192505060018101905061355d565b5050509392505050565b60006135a76135a2846149c0565b614963565b905080838252602082019050828560208602820111156135c657600080fd5b60005b858110156135f657816135dc888261378d565b8452602084019350602083019250506001810190506135c9565b5050509392505050565b600061361361360e846149ec565b614963565b90508281526020810184848401111561362b57600080fd5b613636848285614bf4565b509392505050565b600061365161364c84614a1c565b614963565b90508281526020810184848401111561366957600080fd5b613674848285614bf4565b509392505050565b60008135905061368b81614e12565b92915050565b6000815190506136a081614e12565b92915050565b600082601f8301126136b757600080fd5b81356136c7848260208601613528565b91505092915050565b600082601f8301126136e157600080fd5b81356136f1848260208601613594565b91505092915050565b60008135905061370981614e29565b92915050565b60008135905061371e81614e40565b92915050565b60008151905061373381614e40565b92915050565b600082601f83011261374a57600080fd5b813561375a848260208601613600565b91505092915050565b600082601f83011261377457600080fd5b813561378484826020860161363e565b91505092915050565b60008135905061379c81614e57565b92915050565b6000602082840312156137b457600080fd5b60006137c28482850161367c565b91505092915050565b6000602082840312156137dd57600080fd5b60006137eb84828501613691565b91505092915050565b6000806040838503121561380757600080fd5b60006138158582860161367c565b92505060206138268582860161367c565b9150509250929050565b600080600080600060a0868803121561384857600080fd5b60006138568882890161367c565b95505060206138678882890161367c565b945050604086013567ffffffffffffffff81111561388457600080fd5b613890888289016136d0565b935050606086013567ffffffffffffffff8111156138ad57600080fd5b6138b9888289016136d0565b925050608086013567ffffffffffffffff8111156138d657600080fd5b6138e288828901613739565b9150509295509295909350565b600080600080600060a0868803121561390757600080fd5b60006139158882890161367c565b95505060206139268882890161367c565b94505060406139378882890161378d565b93505060606139488882890161378d565b925050608086013567ffffffffffffffff81111561396557600080fd5b61397188828901613739565b9150509295509295909350565b6000806040838503121561399157600080fd5b600061399f8582860161367c565b92505060206139b0858286016136fa565b9150509250929050565b600080604083850312156139cd57600080fd5b60006139db8582860161367c565b92505060206139ec8582860161378d565b9150509250929050565b600080600060608486031215613a0b57600080fd5b6000613a198682870161367c565b9350506020613a2a8682870161378d565b9250506040613a3b8682870161378d565b9150509250925092565b60008060408385031215613a5857600080fd5b600083013567ffffffffffffffff811115613a7257600080fd5b613a7e858286016136a6565b925050602083013567ffffffffffffffff811115613a9b57600080fd5b613aa7858286016136d0565b9150509250929050565b600060208284031215613ac357600080fd5b6000613ad18482850161370f565b91505092915050565b600060208284031215613aec57600080fd5b6000613afa84828501613724565b91505092915050565b600060208284031215613b1557600080fd5b600082013567ffffffffffffffff811115613b2f57600080fd5b613b3b84828501613763565b91505092915050565b600060208284031215613b5657600080fd5b6000613b648482850161378d565b91505092915050565b6000613b798383613b9d565b60208301905092915050565b6000613b91838361447e565b60208301905092915050565b613ba681614b80565b82525050565b613bb581614b80565b82525050565b6000613bc682614a6c565b613bd08185614ab2565b9350613bdb83614a4c565b8060005b83811015613c0c578151613bf38882613b6d565b9750613bfe83614a98565b925050600181019050613bdf565b5085935050505092915050565b6000613c2482614a77565b613c2e8185614ac3565b9350613c3983614a5c565b8060005b83811015613c6a578151613c518882613b85565b9750613c5c83614aa5565b925050600181019050613c3d565b5085935050505092915050565b613c8081614b92565b82525050565b6000613c9182614a82565b613c9b8185614ad4565b9350613cab818560208601614c03565b613cb481614d3e565b840191505092915050565b6000613cca82614a8d565b613cd48185614ae5565b9350613ce4818560208601614c03565b613ced81614d3e565b840191505092915050565b6000613d05603483614ae5565b91507f455243313135353a207472616e7366657220746f206e6f6e204552433131353560008301527f526563656976657220696d706c656d656e7465720000000000000000000000006020830152604082019050919050565b6000613d6b602883614ae5565b91507f455243313135353a204552433131353552656365697665722072656a6563746560008301527f6420746f6b656e730000000000000000000000000000000000000000000000006020830152604082019050919050565b6000613dd1602b83614ae5565b91507f6d6573736167652073656e6465722068617320746f206f776e20616c6c206f6660008301527f20746865207368617265730000000000000000000000000000000000000000006020830152604082019050919050565b6000613e37602a83614ae5565b91507f6d73672073656e6465722068617320746f206f776e2074686520746f6b656e2060008301527f746f206465706f736974000000000000000000000000000000000000000000006020830152604082019050919050565b6000613e9d602b83614ae5565b91507f455243313135353a2062616c616e636520717565727920666f7220746865207a60008301527f65726f20616464726573730000000000000000000000000000000000000000006020830152604082019050919050565b6000613f03602683614ae5565b91507f4f776e61626c653a206e6577206f776e657220697320746865207a65726f206160008301527f64647265737300000000000000000000000000000000000000000000000000006020830152604082019050919050565b6000613f69602483614ae5565b91507f455243313135353a206275726e20616d6f756e7420657863656564732062616c60008301527f616e6365000000000000000000000000000000000000000000000000000000006020830152604082019050919050565b6000613fcf602983614ae5565b91507f455243313135353a2063616c6c6572206973206e6f74206f776e6572206e6f7260008301527f20617070726f76656400000000000000000000000000000000000000000000006020830152604082019050919050565b6000614035601083614ae5565b91507f5061757361626c653a20706175736564000000000000000000000000000000006000830152602082019050919050565b6000614075602583614ae5565b91507f455243313135353a207472616e7366657220746f20746865207a65726f20616460008301527f64726573730000000000000000000000000000000000000000000000000000006020830152604082019050919050565b60006140db603283614ae5565b91507f455243313135353a207472616e736665722063616c6c6572206973206e6f742060008301527f6f776e6572206e6f7220617070726f76656400000000000000000000000000006020830152604082019050919050565b6000614141602e83614ae5565b91507f496e697469616c697a61626c653a20636f6e747261637420697320616c72656160008301527f647920696e697469616c697a65640000000000000000000000000000000000006020830152604082019050919050565b60006141a7602383614ae5565b91507f455243313135353a206275726e2066726f6d20746865207a65726f206164647260008301527f65737300000000000000000000000000000000000000000000000000000000006020830152604082019050919050565b600061420d602a83614ae5565b91507f455243313135353a20696e73756666696369656e742062616c616e636520666f60008301527f72207472616e73666572000000000000000000000000000000000000000000006020830152604082019050919050565b6000614273602083614ae5565b91507f4f776e61626c653a2063616c6c6572206973206e6f7420746865206f776e65726000830152602082019050919050565b60006142b3602983614ae5565b91507f455243313135353a2073657474696e6720617070726f76616c2073746174757360008301527f20666f722073656c6600000000000000000000000000000000000000000000006020830152604082019050919050565b6000614319602983614ae5565b91507f455243313135353a206163636f756e747320616e6420696473206c656e67746860008301527f206d69736d6174636800000000000000000000000000000000000000000000006020830152604082019050919050565b600061437f602883614ae5565b91507f455243313135353a2069647320616e6420616d6f756e7473206c656e6774682060008301527f6d69736d617463680000000000000000000000000000000000000000000000006020830152604082019050919050565b60006143e5602183614ae5565b91507f455243313135353a206d696e7420746f20746865207a65726f2061646472657360008301527f73000000000000000000000000000000000000000000000000000000000000006020830152604082019050919050565b600061444b601883614ae5565b91507f4e6f7420616c6c6f776564207768696c652070617573656400000000000000006000830152602082019050919050565b61448781614bea565b82525050565b61449681614bea565b82525050565b60006020820190506144b16000830184613bac565b92915050565b600060a0820190506144cc6000830188613bac565b6144d96020830187613bac565b81810360408301526144eb8186613c19565b905081810360608301526144ff8185613c19565b905081810360808301526145138184613c86565b90509695505050505050565b60006060820190506145346000830186613bac565b6145416020830185613bac565b61454e604083018461448d565b949350505050565b600060a08201905061456b6000830188613bac565b6145786020830187613bac565b614585604083018661448d565b614592606083018561448d565b81810360808301526145a48184613c86565b90509695505050505050565b60006060820190506145c56000830186613bac565b6145d2602083018561448d565b6145df604083018461448d565b949350505050565b600060208201905081810360008301526146018184613bbb565b905092915050565b600060208201905081810360008301526146238184613c19565b905092915050565b600060408201905081810360008301526146458185613c19565b905081810360208301526146598184613c19565b90509392505050565b60006020820190506146776000830184613c77565b92915050565b600060208201905081810360008301526146978184613cbf565b905092915050565b600060208201905081810360008301526146b881613cf8565b9050919050565b600060208201905081810360008301526146d881613d5e565b9050919050565b600060208201905081810360008301526146f881613dc4565b9050919050565b6000602082019050818103600083015261471881613e2a565b9050919050565b6000602082019050818103600083015261473881613e90565b9050919050565b6000602082019050818103600083015261475881613ef6565b9050919050565b6000602082019050818103600083015261477881613f5c565b9050919050565b6000602082019050818103600083015261479881613fc2565b9050919050565b600060208201905081810360008301526147b881614028565b9050919050565b600060208201905081810360008301526147d881614068565b9050919050565b600060208201905081810360008301526147f8816140ce565b9050919050565b6000602082019050818103600083015261481881614134565b9050919050565b600060208201905081810360008301526148388161419a565b9050919050565b6000602082019050818103600083015261485881614200565b9050919050565b6000602082019050818103600083015261487881614266565b9050919050565b60006020820190508181036000830152614898816142a6565b9050919050565b600060208201905081810360008301526148b88161430c565b9050919050565b600060208201905081810360008301526148d881614372565b9050919050565b600060208201905081810360008301526148f8816143d8565b9050919050565b600060208201905081810360008301526149188161443e565b9050919050565b6000602082019050614934600083018461448d565b92915050565b600060408201905061494f600083018561448d565b61495c602083018461448d565b9392505050565b6000604051905081810181811067ffffffffffffffff8211171561498a57614989614d0f565b5b8060405250919050565b600067ffffffffffffffff8211156149af576149ae614d0f565b5b602082029050602081019050919050565b600067ffffffffffffffff8211156149db576149da614d0f565b5b602082029050602081019050919050565b600067ffffffffffffffff821115614a0757614a06614d0f565b5b601f19601f8301169050602081019050919050565b600067ffffffffffffffff821115614a3757614a36614d0f565b5b601f19601f8301169050602081019050919050565b6000819050602082019050919050565b6000819050602082019050919050565b600081519050919050565b600081519050919050565b600081519050919050565b600081519050919050565b6000602082019050919050565b6000602082019050919050565b600082825260208201905092915050565b600082825260208201905092915050565b600082825260208201905092915050565b600082825260208201905092915050565b6000614b0182614bea565b9150614b0c83614bea565b9250827fffffffffffffffffffffffffffffffffffffffffffffffffffffffffffffffff03821115614b4157614b40614cb1565b5b828201905092915050565b6000614b5782614bea565b9150614b6283614bea565b925082821015614b7557614b74614cb1565b5b828203905092915050565b6000614b8b82614bca565b9050919050565b60008115159050919050565b60007fffffffff0000000000000000000000000000000000000000000000000000000082169050919050565b600073ffffffffffffffffffffffffffffffffffffffff82169050919050565b6000819050919050565b82818337600083830152505050565b60005b83811015614c21578082015181840152602081019050614c06565b83811115614c30576000848401525b50505050565b60006002820490506001821680614c4e57607f821691505b60208210811415614c6257614c61614ce0565b5b50919050565b6000614c7382614bea565b91507fffffffffffffffffffffffffffffffffffffffffffffffffffffffffffffffff821415614ca657614ca5614cb1565b5b600182019050919050565b7f4e487b7100000000000000000000000000000000000000000000000000000000600052601160045260246000fd5b7f4e487b7100000000000000000000000000000000000000000000000000000000600052602260045260246000fd5b7f4e487b7100000000000000000000000000000000000000000000000000000000600052604160045260246000fd5b6000601f19601f8301169050919050565b60008160e01c9050919050565b600060443d1015614d6c57614e0f565b60046000803e614d7d600051614d4f565b6308c379a08114614d8e5750614e0f565b60405160043d036004823e80513d602482011167ffffffffffffffff82111715614dba57505050614e0f565b808201805167ffffffffffffffff811115614dd9575050505050614e0f565b8060208301013d8501811115614df457505050505050614e0f565b614dfd82614d3e565b60208401016040528296505050505050505b90565b614e1b81614b80565b8114614e2657600080fd5b50565b614e3281614b92565b8114614e3d57600080fd5b50565b614e4981614b9e565b8114614e5457600080fd5b50565b614e6081614bea565b8114614e6b57600080fd5b5056fea26469706673582212200cb21a84f49e8c45735a9c7460a59a35249d6caf1bc85ce6b5188c7d94c1b32864736f6c63430008000033",
  "immutableReferences": {},
  "source": "// SPDX-License-Identifier: MIT\n\npragma solidity ^0.8.0;\n\nimport \"@openzeppelin/contracts-upgradeable/token/ERC1155/ERC1155Upgradeable.sol\";\nimport \"@openzeppelin/contracts-upgradeable/security/PausableUpgradeable.sol\";\nimport \"@openzeppelin/contracts-upgradeable/proxy/utils/Initializable.sol\";\nimport \"@openzeppelin/contracts/token/ERC721/IERC721.sol\";\nimport \"@openzeppelin/contracts-upgradeable/utils/CountersUpgradeable.sol\";\nimport \"@openzeppelin/contracts-upgradeable/access/OwnableUpgradeable.sol\";\n\ncontract NftFractionsRepository is\n    Initializable,\n    ERC1155Upgradeable,\n    PausableUpgradeable,\n    OwnableUpgradeable\n{\n    using CountersUpgradeable for CountersUpgradeable.Counter;\n\n    struct Token {\n        address erc721ContractAddress;\n        uint256 erc721TokenId;\n        uint256 totalFractionsAmount;\n    }\n\n    CountersUpgradeable.Counter private _ids;\n    mapping(uint256 => Token) tokens;\n    // data structures to keep track of:\n    // tokenIds by owner:\n    mapping(address => uint256[]) tokenIdsByShareOwner;\n    // owners by tokenId:\n    mapping(uint256 => address[]) ownersByTokenId;\n    // all tokenIds:\n    uint256[] tokenIds;\n\n    function initialize(string memory uri_) public initializer {\n        __Context_init_unchained();\n        __ERC165_init_unchained();\n        __Pausable_init_unchained();\n        __ERC1155_init_unchained(uri_);\n        __Ownable_init_unchained();\n    }\n\n    /**\n     * @dev Deposit an ERC721 token and mints an ERC1155 token with the given fractions amount\n     * the original ERC721 token is transferred to the address of this smart contract.\n     * Before calling this function the user has to call the apporve function on the original NFT contract and\n     * approve this smart contract to transfer his NFT.\n     *\n     * Requirements:\n     * - msg.sender has to own the token that is deposited\n     * - the contract is not paused\n     */\n    function depositNft(\n        address erc721ContractAddress,\n        uint256 erc721TokenId,\n        uint256 fractionsAmountToMint\n    ) external {\n        require(!paused(), \"Not allowed while paused\");\n        IERC721 erc721Contract = IERC721(erc721ContractAddress);\n        require(\n            erc721Contract.ownerOf(erc721TokenId) == msg.sender,\n            \"msg sender has to own the token to deposit\"\n        );\n        erc721Contract.transferFrom(msg.sender, address(this), erc721TokenId);\n        _ids.increment();\n        uint256 newItemId = _ids.current();\n        _mint(msg.sender, newItemId, fractionsAmountToMint, \"\");\n        Token memory token;\n        token.erc721ContractAddress = erc721ContractAddress;\n        token.erc721TokenId = erc721TokenId;\n        token.totalFractionsAmount = fractionsAmountToMint;\n        tokens[newItemId] = token;\n        tokenIdsByShareOwner[msg.sender].push(newItemId);\n        ownersByTokenId[newItemId].push(msg.sender);\n        tokenIds.push(newItemId);\n    }\n\n    /**\n     * @dev Withdraw an ERC721 token from this contract. The message sender has to own all of the shares in\n     * the correspondign ERC1155 token.\n     * Successfull withdraw means:\n     * - burning the ERC1155 token\n     * - transfering the ERC721 token to the owner (msg.sender) = owner of all shares in the ERC1155 token\n     *\n     * Requirements:\n     * - msg.sender has to own all shares in the corresponding ERC1155 token\n     * - the contract is not paused\n     */\n    function withdrawNft(uint256 tokenId) external {\n        require(!paused(), \"Not allowed while paused\");\n        uint256 totalFractionsAmount = tokens[tokenId].totalFractionsAmount;\n        uint256 sendersAmount = balanceOf(msg.sender, tokenId);\n        require(\n            totalFractionsAmount == sendersAmount,\n            \"message sender has to own all of the shares\"\n        );\n        //sends the original token in the ERC721 contract\n        address erc721ContractAddress = tokens[tokenId].erc721ContractAddress;\n        uint256 erc721TokenId = tokens[tokenId].erc721TokenId;\n        IERC721 erc721Contract = IERC721(erc721ContractAddress);\n        erc721Contract.transferFrom(address(this), msg.sender, erc721TokenId);\n        //burns the ERC1155 token\n        _burn(msg.sender, tokenId, totalFractionsAmount);\n        //deletes the ERC1155 token from the tokenIdsByShareOwner array\n        deleteIdFromTokenIdsByShareOwner(msg.sender, tokenId);\n        //deletes the ERC1155 token from the tokenIds array\n        uint256 nrOfTokens = tokenIds.length;\n        uint256 tokenIdPosition;\n        for (uint256 i; i < nrOfTokens; i++) {\n            if (tokenId == tokenIds[i]) {\n                tokenIdPosition = i;\n                break;\n            }\n        }\n        tokenIds[tokenIdPosition] = tokenIds[nrOfTokens - 1];\n        tokenIds.pop();\n        //deletes the token from the owners mapping\n        delete ownersByTokenId[tokenId];\n        //deletes the token struct\n        delete tokens[tokenId];\n    }\n\n    /**\n     * @dev same as safeTransferFrom in ERC1155 with updating the internal data structures:\n     * - updates the ownersByTokenId data structure\n     * - updates the tokenIdsByShareOwner data structure\n     */\n    function transferFrom(\n        address from,\n        address to,\n        uint256 id,\n        uint256 amount,\n        bytes memory data\n    ) public {\n        require(!paused(), \"Not allowed while paused\");\n        uint256 fromBalanceBefore = balanceOf(from, id);\n        uint256 toBalanceBefore = balanceOf(to, id);\n        safeTransferFrom(from, to, id, amount, data);\n        if (amount >= fromBalanceBefore) {\n            // remove the tokenId from ownersByTokenId[tokenId][from]\n            uint256 nrOfOwners = ownersByTokenId[id].length;\n            uint256 ownerPosition;\n            for (uint256 i; i < nrOfOwners; i++) {\n                if (from == ownersByTokenId[id][i]) {\n                    ownerPosition = i;\n                    break;\n                }\n            }\n            ownersByTokenId[id][ownerPosition] = ownersByTokenId[id][\n                nrOfOwners - 1\n            ];\n            ownersByTokenId[id].pop();\n            // delete the tokenId from the tokenIdsByShareOwner array\n            deleteIdFromTokenIdsByShareOwner(from, id);\n        }\n        if (toBalanceBefore == 0) {\n            ownersByTokenId[id].push(to);\n            tokenIdsByShareOwner[to].push(id);\n        }\n    }\n\n    /**\n     * @dev returns relevant token data:\n     * - original ERC721 contract address\n     * - original ERC721 token id\n     * - amount of fractions minted\n     */\n    function getTokenData(uint256 _tokenId)\n        public\n        view\n        returns (\n            address erc721ContractAddress,\n            uint256 erc721TokenId,\n            uint256 totalFractionsAmount\n        )\n    {\n        return (\n            tokens[_tokenId].erc721ContractAddress,\n            tokens[_tokenId].erc721TokenId,\n            tokens[_tokenId].totalFractionsAmount\n        );\n    }\n\n    function pause() public onlyOwner() {\n        _pause();\n    }\n\n    /**\n     * @dev returns the ERC1155 tokenIds that the shareOwner has shares in\n     */\n    function getTokenIdsByShareOwner(address shareOwner)\n        public\n        view\n        returns (uint256[] memory)\n    {\n        return tokenIdsByShareOwner[shareOwner];\n    }\n\n    /**\n     * @dev returns the owners of a token\n     */\n    function getOwnersBYtokenId(uint256 tokenId)\n        public\n        view\n        returns (address[] memory)\n    {\n        return ownersByTokenId[tokenId];\n    }\n\n    /**\n     * @dev returns all ERC1155 tokenIds managed by this contract\n     */\n    function getTokenIds() public view returns (uint256[] memory) {\n        return tokenIds;\n    }\n\n    /**\n     * @dev helper to delete a tokenId from tokenIdsByShareOwner\n     */\n    function deleteIdFromTokenIdsByShareOwner(address owner, uint256 id)\n        private\n    {\n        uint256 nrOfTokensByShareOwner = tokenIdsByShareOwner[owner].length;\n        uint256 tokenIdPositionInShareOwner;\n        for (uint256 i; i < nrOfTokensByShareOwner; i++) {\n            if (id == tokenIdsByShareOwner[owner][i]) {\n                tokenIdPositionInShareOwner = i;\n                break;\n            }\n        }\n        tokenIdsByShareOwner[owner][\n            tokenIdPositionInShareOwner\n        ] = tokenIdsByShareOwner[owner][nrOfTokensByShareOwner - 1];\n        tokenIdsByShareOwner[owner].pop();\n    }\n}\n",
  "sourcePath": "/Users/szabolcs/Documents/Personal/Szakmai/Ethereum/nft-fractions-dex/contracts/NftFractionsRepository.sol",
  "compiler": {
    "name": "solc",
    "version": "0.8.0+commit.c7dfd78e.Emscripten.clang"
  },
  "schemaVersion": "3.3.4",
  "updatedAt": "2021-05-25T19:27:21.562Z",
  "networkType": "ethereum",
  "devdoc": {
    "kind": "dev",
    "methods": {
      "balanceOf(address,uint256)": {
        "details": "See {IERC1155-balanceOf}. Requirements: - `account` cannot be the zero address."
      },
      "balanceOfBatch(address[],uint256[])": {
        "details": "See {IERC1155-balanceOfBatch}. Requirements: - `accounts` and `ids` must have the same length."
      },
      "depositNft(address,uint256,uint256)": {
        "details": "Deposit an ERC721 token and mints an ERC1155 token with the given fractions amount the original ERC721 token is transferred to the address of this smart contract. Before calling this function the user has to call the apporve function on the original NFT contract and approve this smart contract to transfer his NFT. Requirements: - msg.sender has to own the token that is deposited - the contract is not paused"
      },
      "getOwnersBYtokenId(uint256)": {
        "details": "returns the owners of a token"
      },
      "getTokenData(uint256)": {
        "details": "returns relevant token data: - original ERC721 contract address - original ERC721 token id - amount of fractions minted"
      },
      "getTokenIds()": {
        "details": "returns all ERC1155 tokenIds managed by this contract"
      },
      "getTokenIdsByShareOwner(address)": {
        "details": "returns the ERC1155 tokenIds that the shareOwner has shares in"
      },
      "isApprovedForAll(address,address)": {
        "details": "See {IERC1155-isApprovedForAll}."
      },
      "owner()": {
        "details": "Returns the address of the current owner."
      },
      "paused()": {
        "details": "Returns true if the contract is paused, and false otherwise."
      },
      "renounceOwnership()": {
        "details": "Leaves the contract without owner. It will not be possible to call `onlyOwner` functions anymore. Can only be called by the current owner. NOTE: Renouncing ownership will leave the contract without an owner, thereby removing any functionality that is only available to the owner."
      },
      "safeBatchTransferFrom(address,address,uint256[],uint256[],bytes)": {
        "details": "See {IERC1155-safeBatchTransferFrom}."
      },
      "safeTransferFrom(address,address,uint256,uint256,bytes)": {
        "details": "See {IERC1155-safeTransferFrom}."
      },
      "setApprovalForAll(address,bool)": {
        "details": "See {IERC1155-setApprovalForAll}."
      },
      "supportsInterface(bytes4)": {
        "details": "See {IERC165-supportsInterface}."
      },
      "transferFrom(address,address,uint256,uint256,bytes)": {
        "details": "same as safeTransferFrom in ERC1155 with updating the internal data structures: - updates the ownersByTokenId data structure - updates the tokenIdsByShareOwner data structure"
      },
      "transferOwnership(address)": {
        "details": "Transfers ownership of the contract to a new account (`newOwner`). Can only be called by the current owner."
      },
      "uri(uint256)": {
        "details": "See {IERC1155MetadataURI-uri}. This implementation returns the same URI for *all* token types. It relies on the token type ID substitution mechanism https://eips.ethereum.org/EIPS/eip-1155#metadata[defined in the EIP]. Clients calling this function must replace the `\\{id\\}` substring with the actual token type ID."
      },
      "withdrawNft(uint256)": {
        "details": "Withdraw an ERC721 token from this contract. The message sender has to own all of the shares in the correspondign ERC1155 token. Successfull withdraw means: - burning the ERC1155 token - transfering the ERC721 token to the owner (msg.sender) = owner of all shares in the ERC1155 token Requirements: - msg.sender has to own all shares in the corresponding ERC1155 token - the contract is not paused"
      }
    },
    "version": 1
  },
  "userdoc": {
    "kind": "user",
    "methods": {},
    "version": 1
  }
}